S01500002E2F44656275672F6B65797061642E733139EE
S315200000000248854600F080F9FEE7C04600C0012080
S3152000001080B500AF054B064A1A60064B0F221A60C0
S31520000020054BAA221A60C046BD4680BD000C024080
S3152000003055550055050C02400E0C024080B584B083
S3152000004000AF7860124BFB607B68012B0DD002DC81
S31520000050002B05D018E0022B0CD0032B0FD013E079
S31520000060FB68802252021A600EE0FB68802252034F
S315200000701A6009E0FB68802252041A6004E0FB68DB
S31520000080802252051A60C046C046BD4604B080BDD7
S31520000090150C024080B584B000AF134B7B607B68A3
S315200000A01B689AB20E23FB180F210A401A800023E0
S315200000B0BB6011E00E23FB181B880122134001D0E0
S315200000C0BB680DE00E23FB180E22BA1812885208C0
S315200000D01A80BB680133BB60BB68032BEADD0023B3
S315200000E01800BD4604B080BD110C024080B584B016
S315200000F000AF786039607B68002B18D13B68012BF4
S315200001000BD002DC002B05D064E0022B08D0032B99
S3152000011009D05FE00123FB605CE00223FB6059E02D
S315200001200323FB6056E00A23FB60C04652E07B684F
S31520000130012B18D13B68012B0BD002DC002B05D0FC
S3152000014048E0022B08D0032B09D043E00423FB60B0
S3152000015040E00523FB603DE00623FB603AE00B23ED
S31520000160FB60C04636E07B68022B18D13B68012B2A
S315200001700BD002DC002B05D02CE0022B08D0032B61
S3152000018009D027E00723FB6024E00823FB6021E059
S315200001900923FB601EE00C23FB60C0461AE07B6847
S315200001A0032B17D13B68012B0BD002DC002B05D08B
S315200001B010E0022B08D0032B09D00BE00E23FB60A6
S315200001C008E00023FB6005E00F23FB6002E00D231F
S315200001D0FB60C046FB681800BD4604B080BDC04623
S315200001E080B582B000AF00237B6016E07B681800E4
S315200001F0FFF724FFFFF74EFF03003B603B68002B11
S3152000020008D03A687B6811001800FFF76FFF0300DB
S31520000210DBB206E07B6801337B607B68032BE5DD80
S31520000220FF231800BD4602B080BDC04680B584B00D
S3152000023000AF0200FB1D1A70314BBB60FB1D1B7803
S315200002400F2B54D89A002F4BD3181B689F460E238A
S31520000250FB183F221A804AE00E23FB1806221A803A
S3152000026045E00E23FB185B221A8040E00E23FB1884
S315200002708F221A803BE00E23FB1866221A8036E076
S315200002800E23FB186D221A8031E00E23FB187D22E7
S315200002901A802CE00E23FB1807221A8027E00E2353
S315200002A0FB187F221A8022E00E23FB1867221A8071
S315200002B01DE00E23FB18F7221A8018E00E23FB18E8
S315200002C07F221A8013E00E23FB1839221A800EE0B3
S315200002D00E23FB183F221A8009E00E23FB187922F1
S315200002E01A8004E00E23FB1871221A80C0460E23C2
S315200002F0FB181A88BB681A60C046BD4604B080BD8C
S31520000300140C02401C03002080B500AFFFF780FECE
S31520000310014B3F221A70FBE7140C02404E020020CC
S3152000032058020020620200206C0200207602002083
S31520000330800200208A020020940200209E020020D3
S31520000340A8020020B2020020BC020020C602002023
S31120000350D0020020DA020020E402002087
S70520000000DA
